{
  "_format": "hh-sol-artifact-1",
  "contractName": "Fundraiser",
  "sourceName": "contracts/Crowdfunding.sol",
  "abi": [
    {
      "inputs": [],
      "stateMutability": "nonpayable",
      "type": "constructor"
    },
    {
      "anonymous": false,
      "inputs": [
        {
          "indexed": false,
          "internalType": "uint256",
          "name": "campaignId",
          "type": "uint256"
        },
        {
          "indexed": false,
          "internalType": "string",
          "name": "title",
          "type": "string"
        },
        {
          "indexed": false,
          "internalType": "address",
          "name": "benefactor",
          "type": "address"
        }
      ],
      "name": "CampaignCreated",
      "type": "event"
    },
    {
      "anonymous": false,
      "inputs": [
        {
          "indexed": false,
          "internalType": "uint256",
          "name": "campaignId",
          "type": "uint256"
        },
        {
          "indexed": false,
          "internalType": "uint256",
          "name": "amountRaised",
          "type": "uint256"
        },
        {
          "indexed": false,
          "internalType": "bool",
          "name": "goalReached",
          "type": "bool"
        }
      ],
      "name": "CampaignEnded",
      "type": "event"
    },
    {
      "anonymous": false,
      "inputs": [
        {
          "indexed": false,
          "internalType": "uint256",
          "name": "campaignId",
          "type": "uint256"
        },
        {
          "indexed": false,
          "internalType": "address",
          "name": "donor",
          "type": "address"
        },
        {
          "indexed": false,
          "internalType": "uint256",
          "name": "amount",
          "type": "uint256"
        }
      ],
      "name": "DonationReceived",
      "type": "event"
    },
    {
      "anonymous": false,
      "inputs": [
        {
          "indexed": false,
          "internalType": "address",
          "name": "owner",
          "type": "address"
        },
        {
          "indexed": false,
          "internalType": "uint256",
          "name": "amount",
          "type": "uint256"
        }
      ],
      "name": "FundsWithdrawn",
      "type": "event"
    },
    {
      "inputs": [
        {
          "internalType": "uint256",
          "name": "",
          "type": "uint256"
        }
      ],
      "name": "campaigns",
      "outputs": [
        {
          "internalType": "string",
          "name": "title",
          "type": "string"
        },
        {
          "internalType": "string",
          "name": "description",
          "type": "string"
        },
        {
          "internalType": "address payable",
          "name": "benefactor",
          "type": "address"
        },
        {
          "internalType": "uint256",
          "name": "goal",
          "type": "uint256"
        },
        {
          "internalType": "uint256",
          "name": "deadline",
          "type": "uint256"
        },
        {
          "internalType": "uint256",
          "name": "amountRaised",
          "type": "uint256"
        },
        {
          "internalType": "bool",
          "name": "ended",
          "type": "bool"
        }
      ],
      "stateMutability": "view",
      "type": "function"
    },
    {
      "inputs": [
        {
          "internalType": "string",
          "name": "_title",
          "type": "string"
        },
        {
          "internalType": "string",
          "name": "_description",
          "type": "string"
        },
        {
          "internalType": "address payable",
          "name": "_benefactor",
          "type": "address"
        },
        {
          "internalType": "uint256",
          "name": "_goal",
          "type": "uint256"
        },
        {
          "internalType": "uint256",
          "name": "_duration",
          "type": "uint256"
        }
      ],
      "name": "createCampaign",
      "outputs": [],
      "stateMutability": "nonpayable",
      "type": "function"
    },
    {
      "inputs": [
        {
          "internalType": "uint256",
          "name": "_campaignId",
          "type": "uint256"
        }
      ],
      "name": "donate",
      "outputs": [],
      "stateMutability": "payable",
      "type": "function"
    },
    {
      "inputs": [
        {
          "internalType": "uint256",
          "name": "_campaignId",
          "type": "uint256"
        }
      ],
      "name": "endCampaign",
      "outputs": [],
      "stateMutability": "nonpayable",
      "type": "function"
    },
    {
      "inputs": [
        {
          "internalType": "uint256",
          "name": "",
          "type": "uint256"
        },
        {
          "internalType": "address",
          "name": "",
          "type": "address"
        }
      ],
      "name": "hasDonated",
      "outputs": [
        {
          "internalType": "bool",
          "name": "",
          "type": "bool"
        }
      ],
      "stateMutability": "view",
      "type": "function"
    },
    {
      "inputs": [],
      "name": "owner",
      "outputs": [
        {
          "internalType": "address",
          "name": "",
          "type": "address"
        }
      ],
      "stateMutability": "view",
      "type": "function"
    },
    {
      "inputs": [],
      "name": "withdrawLeftoverFunds",
      "outputs": [],
      "stateMutability": "nonpayable",
      "type": "function"
    }
  ],
  "bytecode": "0x608060405234801561001057600080fd5b5033600160006101000a81548173ffffffffffffffffffffffffffffffffffffffff021916908373ffffffffffffffffffffffffffffffffffffffff160217905550611a78806100616000396000f3fe6080604052600436106100705760003560e01c80638da5cb5b1161004e5780638da5cb5b1461010c5780639304d12414610137578063dd0408ae14610160578063f14faf6f1461018957610070565b8063141961bc146100755780631e155398146100b85780632bd71681146100f5575b600080fd5b34801561008157600080fd5b5061009c60048036038101906100979190610be2565b6101a5565b6040516100af9796959493929190610d0a565b60405180910390f35b3480156100c457600080fd5b506100df60048036038101906100da9190610dc5565b610334565b6040516100ec9190610e05565b60405180910390f35b34801561010157600080fd5b5061010a610363565b005b34801561011857600080fd5b50610121610568565b60405161012e9190610e2f565b60405180910390f35b34801561014357600080fd5b5061015e60048036038101906101599190610fab565b61058e565b005b34801561016c57600080fd5b5061018760048036038101906101829190610be2565b610760565b005b6101a3600480360381019061019e9190610be2565b610966565b005b600081815481106101b557600080fd5b90600052602060002090600702016000915090508060000180546101d89061108d565b80601f01602080910402602001604051908101604052809291908181526020018280546102049061108d565b80156102515780601f1061022657610100808354040283529160200191610251565b820191906000526020600020905b81548152906001019060200180831161023457829003601f168201915b5050505050908060010180546102669061108d565b80601f01602080910402602001604051908101604052809291908181526020018280546102929061108d565b80156102df5780601f106102b4576101008083540402835291602001916102df565b820191906000526020600020905b8154815290600101906020018083116102c257829003601f168201915b5050505050908060020160009054906101000a900473ffffffffffffffffffffffffffffffffffffffff16908060030154908060040154908060050154908060060160009054906101000a900460ff16905087565b60026020528160005260406000206020528060005260406000206000915091509054906101000a900460ff1681565b600160009054906101000a900473ffffffffffffffffffffffffffffffffffffffff1673ffffffffffffffffffffffffffffffffffffffff163373ffffffffffffffffffffffffffffffffffffffff16146103f3576040517f08c379a00000000000000000000000000000000000000000000000000000000081526004016103ea9061110a565b60405180910390fd5b60004790506000811161043b576040517f08c379a000000000000000000000000000000000000000000000000000000000815260040161043290611176565b60405180910390fd5b6000600160009054906101000a900473ffffffffffffffffffffffffffffffffffffffff1673ffffffffffffffffffffffffffffffffffffffff1682604051610483906111c7565b60006040518083038185875af1925050503d80600081146104c0576040519150601f19603f3d011682016040523d82523d6000602084013e6104c5565b606091505b5050905080610509576040517f08c379a000000000000000000000000000000000000000000000000000000000815260040161050090611228565b60405180910390fd5b7feaff4b37086828766ad3268786972c0cd24259d4c87a80f9d3963a3c3d999b0d600160009054906101000a900473ffffffffffffffffffffffffffffffffffffffff168360405161055c929190611248565b60405180910390a15050565b600160009054906101000a900473ffffffffffffffffffffffffffffffffffffffff1681565b600082116105d1576040517f08c379a00000000000000000000000000000000000000000000000000000000081526004016105c8906112e3565b60405180910390fd5b600081426105df9190611332565b905060006040518060e001604052808881526020018781526020018673ffffffffffffffffffffffffffffffffffffffff16815260200185815260200183815260200160008152602001600015158152509080600181540180825580915050600190039060005260206000209060070201600090919091909150600082015181600001908161066e9190611512565b5060208201518160010190816106849190611512565b5060408201518160020160006101000a81548173ffffffffffffffffffffffffffffffffffffffff021916908373ffffffffffffffffffffffffffffffffffffffff160217905550606082015181600301556080820151816004015560a0820151816005015560c08201518160060160006101000a81548160ff02191690831515021790555050507f2750eae5c1c1d8000d7e674f15576524a1b7e24f4a33052e9d80ce3889556e39600160008054905061073f91906115e4565b87866040516107509392919061166d565b60405180910390a1505050505050565b6000808281548110610775576107746116ab565b5b9060005260206000209060070201905080600401544210156107cc576040517f08c379a00000000000000000000000000000000000000000000000000000000081526004016107c390611726565b60405180910390fd5b8060060160009054906101000a900460ff161561081e576040517f08c379a000000000000000000000000000000000000000000000000000000000815260040161081590611792565b60405180910390fd5b60018160060160006101000a81548160ff0219169083151502179055506000816005015490506000826005018190555060008260020160009054906101000a900473ffffffffffffffffffffffffffffffffffffffff1673ffffffffffffffffffffffffffffffffffffffff1682604051610898906111c7565b60006040518083038185875af1925050503d80600081146108d5576040519150601f19603f3d011682016040523d82523d6000602084013e6108da565b606091505b505090508061091e576040517f08c379a000000000000000000000000000000000000000000000000000000000815260040161091590611824565b60405180910390fd5b7f2daeb9036523684d0097530a448d8d042ff2da258e6f6b7f30184fa0fd7bcf0a8483856003015485101560405161095893929190611844565b60405180910390a150505050565b806000818154811061097b5761097a6116ab565b5b90600052602060002090600702016004015442106109ce576040517f08c379a00000000000000000000000000000000000000000000000000000000081526004016109c5906118c7565b60405180910390fd5b60008083815481106109e3576109e26116ab565b5b9060005260206000209060070201905060003411610a36576040517f08c379a0000000000000000000000000000000000000000000000000000000008152600401610a2d90611959565b60405180910390fd5b6002600084815260200190815260200160002060003373ffffffffffffffffffffffffffffffffffffffff1673ffffffffffffffffffffffffffffffffffffffff16815260200190815260200160002060009054906101000a900460ff1615610ad4576040517f08c379a0000000000000000000000000000000000000000000000000000000008152600401610acb906119eb565b60405180910390fd5b34816005016000828254610ae89190611332565b9250508190555060016002600085815260200190815260200160002060003373ffffffffffffffffffffffffffffffffffffffff1673ffffffffffffffffffffffffffffffffffffffff16815260200190815260200160002060006101000a81548160ff0219169083151502179055507f0b5b4c52969ff7329ecf7ee536409fda87812b15a8622bc6e8cdeab3aee14a26833334604051610b8b93929190611a0b565b60405180910390a1505050565b6000604051905090565b600080fd5b600080fd5b6000819050919050565b610bbf81610bac565b8114610bca57600080fd5b50565b600081359050610bdc81610bb6565b92915050565b600060208284031215610bf857610bf7610ba2565b5b6000610c0684828501610bcd565b91505092915050565b600081519050919050565b600082825260208201905092915050565b60005b83811015610c49578082015181840152602081019050610c2e565b60008484015250505050565b6000601f19601f8301169050919050565b6000610c7182610c0f565b610c7b8185610c1a565b9350610c8b818560208601610c2b565b610c9481610c55565b840191505092915050565b600073ffffffffffffffffffffffffffffffffffffffff82169050919050565b6000610cca82610c9f565b9050919050565b610cda81610cbf565b82525050565b610ce981610bac565b82525050565b60008115159050919050565b610d0481610cef565b82525050565b600060e0820190508181036000830152610d24818a610c66565b90508181036020830152610d388189610c66565b9050610d476040830188610cd1565b610d546060830187610ce0565b610d616080830186610ce0565b610d6e60a0830185610ce0565b610d7b60c0830184610cfb565b98975050505050505050565b6000610d9282610c9f565b9050919050565b610da281610d87565b8114610dad57600080fd5b50565b600081359050610dbf81610d99565b92915050565b60008060408385031215610ddc57610ddb610ba2565b5b6000610dea85828601610bcd565b9250506020610dfb85828601610db0565b9150509250929050565b6000602082019050610e1a6000830184610cfb565b92915050565b610e2981610d87565b82525050565b6000602082019050610e446000830184610e20565b92915050565b600080fd5b600080fd5b7f4e487b7100000000000000000000000000000000000000000000000000000000600052604160045260246000fd5b610e8c82610c55565b810181811067ffffffffffffffff82111715610eab57610eaa610e54565b5b80604052505050565b6000610ebe610b98565b9050610eca8282610e83565b919050565b600067ffffffffffffffff821115610eea57610ee9610e54565b5b610ef382610c55565b9050602081019050919050565b82818337600083830152505050565b6000610f22610f1d84610ecf565b610eb4565b905082815260208101848484011115610f3e57610f3d610e4f565b5b610f49848285610f00565b509392505050565b600082601f830112610f6657610f65610e4a565b5b8135610f76848260208601610f0f565b91505092915050565b610f8881610cbf565b8114610f9357600080fd5b50565b600081359050610fa581610f7f565b92915050565b600080600080600060a08688031215610fc757610fc6610ba2565b5b600086013567ffffffffffffffff811115610fe557610fe4610ba7565b5b610ff188828901610f51565b955050602086013567ffffffffffffffff81111561101257611011610ba7565b5b61101e88828901610f51565b945050604061102f88828901610f96565b935050606061104088828901610bcd565b925050608061105188828901610bcd565b9150509295509295909350565b7f4e487b7100000000000000000000000000000000000000000000000000000000600052602260045260246000fd5b600060028204905060018216806110a557607f821691505b6020821081036110b8576110b761105e565b5b50919050565b7f4e6f742074686520636f6e7472616374206f776e65722e000000000000000000600082015250565b60006110f4601783610c1a565b91506110ff826110be565b602082019050919050565b60006020820190508181036000830152611123816110e7565b9050919050565b7f4e6f2066756e647320746f2077697468647261772e0000000000000000000000600082015250565b6000611160601583610c1a565b915061116b8261112a565b602082019050919050565b6000602082019050818103600083015261118f81611153565b9050919050565b600081905092915050565b50565b60006111b1600083611196565b91506111bc826111a1565b600082019050919050565b60006111d2826111a4565b9150819050919050565b7f4661696c656420746f2077697468647261772066756e64732e00000000000000600082015250565b6000611212601983610c1a565b915061121d826111dc565b602082019050919050565b6000602082019050818103600083015261124181611205565b9050919050565b600060408201905061125d6000830185610e20565b61126a6020830184610ce0565b9392505050565b7f476f616c2073686f756c642062652067726561746572207468616e207a65726f60008201527f2e00000000000000000000000000000000000000000000000000000000000000602082015250565b60006112cd602183610c1a565b91506112d882611271565b604082019050919050565b600060208201905081810360008301526112fc816112c0565b9050919050565b7f4e487b7100000000000000000000000000000000000000000000000000000000600052601160045260246000fd5b600061133d82610bac565b915061134883610bac565b92508282019050808211156113605761135f611303565b5b92915050565b60008190508160005260206000209050919050565b60006020601f8301049050919050565b600082821b905092915050565b6000600883026113c87fffffffffffffffffffffffffffffffffffffffffffffffffffffffffffffffff8261138b565b6113d2868361138b565b95508019841693508086168417925050509392505050565b6000819050919050565b600061140f61140a61140584610bac565b6113ea565b610bac565b9050919050565b6000819050919050565b611429836113f4565b61143d61143582611416565b848454611398565b825550505050565b600090565b611452611445565b61145d818484611420565b505050565b5b818110156114815761147660008261144a565b600181019050611463565b5050565b601f8211156114c65761149781611366565b6114a08461137b565b810160208510156114af578190505b6114c36114bb8561137b565b830182611462565b50505b505050565b600082821c905092915050565b60006114e9600019846008026114cb565b1980831691505092915050565b600061150283836114d8565b9150826002028217905092915050565b61151b82610c0f565b67ffffffffffffffff81111561153457611533610e54565b5b61153e825461108d565b611549828285611485565b600060209050601f83116001811461157c576000841561156a578287015190505b61157485826114f6565b8655506115dc565b601f19841661158a86611366565b60005b828110156115b25784890151825560018201915060208501945060208101905061158d565b868310156115cf57848901516115cb601f8916826114d8565b8355505b6001600288020188555050505b505050505050565b60006115ef82610bac565b91506115fa83610bac565b925082820390508181111561161257611611611303565b5b92915050565b600061163361162e61162984610c9f565b6113ea565b610c9f565b9050919050565b600061164582611618565b9050919050565b60006116578261163a565b9050919050565b6116678161164c565b82525050565b60006060820190506116826000830186610ce0565b81810360208301526116948185610c66565b90506116a3604083018461165e565b949350505050565b7f4e487b7100000000000000000000000000000000000000000000000000000000600052603260045260246000fd5b7f43616d706169676e206973207374696c6c206163746976652e00000000000000600082015250565b6000611710601983610c1a565b915061171b826116da565b602082019050919050565b6000602082019050818103600083015261173f81611703565b9050919050565b7f43616d706169676e2068617320616c726561647920656e6465642e0000000000600082015250565b600061177c601b83610c1a565b915061178782611746565b602082019050919050565b600060208201905081810360008301526117ab8161176f565b9050919050565b7f4661696c656420746f2073656e642066756e647320746f207468652062656e6560008201527f666163746f722e00000000000000000000000000000000000000000000000000602082015250565b600061180e602783610c1a565b9150611819826117b2565b604082019050919050565b6000602082019050818103600083015261183d81611801565b9050919050565b60006060820190506118596000830186610ce0565b6118666020830185610ce0565b6118736040830184610cfb565b949350505050565b7f43616d706169676e2068617320656e6465642e00000000000000000000000000600082015250565b60006118b1601383610c1a565b91506118bc8261187b565b602082019050919050565b600060208201905081810360008301526118e0816118a4565b9050919050565b7f446f6e6174696f6e206d7573742062652067726561746572207468616e207a6560008201527f726f2e0000000000000000000000000000000000000000000000000000000000602082015250565b6000611943602383610c1a565b915061194e826118e7565b604082019050919050565b6000602082019050818103600083015261197281611936565b9050919050565b7f596f75206861766520616c726561647920646f6e6174656420746f207468697360008201527f2063616d706169676e2e00000000000000000000000000000000000000000000602082015250565b60006119d5602a83610c1a565b91506119e082611979565b604082019050919050565b60006020820190508181036000830152611a04816119c8565b9050919050565b6000606082019050611a206000830186610ce0565b611a2d6020830185610e20565b611a3a6040830184610ce0565b94935050505056fea26469706673582212203967ad4d52dd422dbdafd4bd512ed866cceb4e842dd5177e723ce86a750a401664736f6c63430008180033",
  "linkReferences": {},
  "deployedLinkReferences": {}
}